:100000000C942A000C9447000C9447000C94470071
:100010000C9447000C9447000C9447000C948A0100
:100020000C9447000C94B3010C9447000C944700C7
:100030000C9447000C947E060C9447000C944700E7
:100040000C9447000C9447000C9447000C94470014
:100050000C94470011241FBECFE5D8E0DEBFCDBF12
:1000600011E0A0E6B0E0EAE7FEE002C005900D92E4
:10007000A234B107D9F711E0A2E4B1E001C01D92AA
:10008000A835B107E1F70E9458040C943B070C9483
:100090000000683008F070C0843008F06DC0813016
:1000A00009F1813030F08230B1F1833009F064C061
:1000B0004BC0413059F42AB381E090E002C0880F70
:1000C000991F6A95E2F7282B2ABB08952AB381E08D
:1000D00090E002C0880F991F6A95E2F7809582230D
:1000E0008ABB0895413059F427B381E090E002C003
:1000F000880F991F6A95E2F7282B27BB089527B32D
:1001000081E090E002C0880F991F6A95E2F7809520
:10011000822387BB0895413059F424B381E090E0F5
:1001200002C0880F991F6A95E2F7282B24BB089517
:1001300024B381E090E002C0880F991F6A95E2F72E
:100140008095822384BB0895413059F421B381E026
:1001500090E002C0880F991F6A95E2F7282B21BB17
:10016000089521B381E090E002C0880F991F6A953D
:10017000E2F78095822381BB0895683008F070C053
:10018000843008F06DC0813009F1813030F0823068
:10019000B1F1833009F064C04BC0413059F42BB346
:1001A00081E090E002C0880F991F6A95E2F7282B42
:1001B0002BBB08952BB381E090E002C0880F991FFC
:1001C0006A95E2F7809582238BBB0895413059F4FC
:1001D00028B381E090E002C0880F991F6A95E2F78A
:1001E000282B28BB089528B381E090E002C0880F37
:1001F000991F6A95E2F78095822388BB0895413064
:1002000059F425B381E090E002C0880F991F6A95E8
:10021000E2F7282B25BB089525B381E090E002C0CA
:10022000880F991F6A95E2F78095822385BB089510
:10023000413059F422B381E090E002C0880F991F49
:100240006A95E2F7282B22BB089522B381E090E063
:1002500002C0880F991F6A95E2F78095822382BBBE
:1002600008956830D0F48430C0F4813049F0813092
:1002700028F0823039F0833081F406C089B305C09C
:1002800086B303C083B301C080B390E002C09595EC
:1002900087956A95E2F78170089580E0089584302B
:1002A00080F4813049F0813028F0823039F0833099
:1002B00041F406C06ABB089567BB089564BB089506
:1002C00061BB0895843080F4813049F0813028F09A
:1002D000823039F0833041F406C06BBB089568BBAF
:1002E000089565BB089562BB0895843088F4813019
:1002F00049F0813028F0823039F0833049F406C06B
:1003000089B3089586B3089583B3089580B308959B
:1003100080E008951F920F920FB60F9211242F9331
:100320003F934F935F936F937F938F939F93AF937D
:10033000BF93EF93FF93E0914201F0914301309717
:1003400009F00995FF91EF91BF91AF919F918F9126
:100350007F916F915F914F913F912F910F900FBEC1
:100360000F901F9018951F920F920FB60F921124A5
:100370002F933F934F935F936F937F938F939F93AD
:10038000AF93BF93EF93FF93E0914201F09143014C
:10039000309709F00995FF91EF91BF91AF919F912F
:1003A0008F917F916F915F914F913F912F910F901E
:1003B0000FBE0F901F901895FC01808191819DBD0B
:1003C0008CBD8CE08FBD8581813069F489B78061F7
:1003D00089BF8FB580648FBD88E08EBD8281938197
:1003E0009BBD8ABD02C084E089BF8EB59481892BF4
:1003F0008EBD8FB780688FBF08951FBC1EBC1DBC0B
:100400001CBC1BBC1ABC89B78F7D89BF0895909313
:1004100043018093420108959FEF899FC0011124F9
:1004200064E670E00E94C1066CBF089512BE1CBE57
:1004300013BE089512BE81E063E041E00E944900CE
:100440008AE683BF0895FC01599A88E18AB9579AD0
:1004500080B5806880BD90B52081822F880F86701E
:10046000997F892B80BD8AB124708B7F282B2AB974
:1004700090B582818295807F9F7C892B80BD90B5CD
:100480008181880F880F880F977F892B80BD6781B6
:1004900070E080E090E023813481458156810E94A4
:1004A000A2069B01AC0160E072E18AE790E00E9445
:1004B000D4062150304080B58F7780BD30BD29B93A
:1004C00008955D9BFECF8CB908955F9BFECF8CB1E4
:1004D000089520E004C05D9BFECFECB92F5FFC01C6
:1004E000E20FF11DE081EE23B1F70895DC015F9B7F
:1004F000FECF8CB18C9390E008C09F5F5F9BFECFD6
:100500008CB1FD01E90FF11D8083FD01E90FF11DA3
:100510008081833291F7108208951F93182F862FC0
:100520000E940C02113049F0113018F01230C1F461
:100530000DC082E060E040E00CC082E060E040E09E
:100540000E94BD0082E061E041E008C082E060E01E
:1005500041E00E94BD0082E061E040E00E94BD00F9
:100560001F9108950E941A0282E060E041E00E941B
:10057000490082E061E041E00E94490082E060E0E1
:1005800040E00E94BD0082E061E040E00E94BD00CA
:1005900008950F931F93FC0180819181009709F4C6
:1005A00096C06C3421F0623509F091C034C00197D7
:1005B00091838083E0914401F0914501E65DFE4F17
:1005C0004081469546954695417082E062E00E94E2
:1005D000BD00E0914401F0914501E65DFE4F408190
:1005E00046954695417082E063E00E94BD00E0912F
:1005F0004401F0914501E65DFE4F40814695417012
:1006000082E064E00E94BD00E0914401F091450168
:10061000E65DFE4F41C001979183808307E010E0C3
:100620008091440190914501F801E81BF90BE65DCA
:10063000FE4F4081469546954695417082E062E0C6
:100640000E94BD008091440190914501F801E81B92
:10065000F90BE65DFE4F408146954695417082E07C
:1006600063E00E94BD008091440190914501F80132
:10067000E81BF90BE65DFE4F40814695417082E034
:1006800064E00E94BD008091440190914501081BE7
:10069000190B065D1E4FF8014081417082E065E054
:1006A0000E94BD0080E49CE90197F1F7809144012C
:1006B000909145018830910534F40196909345015D
:1006C0008093440104C010924501109244011F918F
:1006D0000F91089582E062E041E00E94490082E0CB
:1006E00063E041E00E94490082E064E041E00E9452
:1006F000490082E065E041E00E94490082E062E05A
:1007000040E00E94BD0082E063E041E00E94BD0045
:1007100082E064E041E00E94BD0082E065E040E0EC
:100720000E94BD000895FF920F931F93F82E81E061
:1007300062E041E00E94BD0000ED17E0C8010197B2
:10074000F1F781E060E041E00E94BD00C80101973F
:10075000F1F780E06F2D0E946201C8010197F1F767
:1007600081E060E040E00E94BD00C8010197F1F720
:100770001F910F91FF9008951F93CF93DF93EC018A
:1007800010E003C00E9493031F5FFE01E10FF11D03
:1007900080818823B9F7DF91CF911F9108950F933E
:1007A0001F93DF93CF93CDB7DEB760970FB6F89462
:1007B000DEBF0FBECDBF8E010F5F1F4FB8014AE0F5
:1007C00050E00E940A07C8010E94BC0360960FB661
:1007D000F894DEBF0FBECDBFCF91DF911F910F9177
:1007E0000895FF920F931F93F82E81E062E040E09E
:1007F0000E94BD0000ED17E0C8010197F1F781E00C
:1008000060E041E00E94BD00C8010197F1F780E07F
:100810006F2D0E946201C8010197F1F781E060E04D
:1008200040E00E94BD00C8010197F1F71F910F91B0
:10083000FF90089581E00E94F1030895813039F01E
:10084000813050F0823029F0833031F404C0605C94
:1008500003C0605F01C0605B862F80680E94F10367
:1008600008950F931F938A010E941E04C8010E94DD
:10087000BC031F910F91089581E062E041E00E9466
:10088000490081E060E041E00E94490080E49CE989
:100890000197F1F780E061E00E944F0188E30E9438
:1008A000F1038CE00E94F10381E00E94F1030895BE
:1008B000DF93CF93CDB7DEB72E970FB6F894DEBF98
:1008C0000FBECDBF7894DE011796EAE3F1E088E031
:1008D00001900D928150E1F7CE0107960E9423020C
:1008E0000E943C040E94B2020E946A03DE0111963B
:1008F000E4E3F1E086E001900D928150E1F7CE0152
:1009000001960E94DC0180E690E00E94BC0384EC2A
:1009100099E028EC30E0F9013197F1F70197D9F728
:1009200081E060E041E850E00E94310482EA94E016
:100930000E9407026091550186E591E070E00E94F7
:10094000C902F8CF80915401893050F48F5F8093B1
:10095000540181E064E10E941E048091540110C1A1
:10096000809153018530A8F4109254018F5F8093D9
:10097000530181E064E10E941E048091540190E0E3
:100980000E94CF0381E063E10E941E048091530125
:10099000F7C080915201893000F5109254011092F5
:1009A00053018F5F8093520181E064E10E941E0435
:1009B0008091540190E00E94CF0381E063E10E94A6
:1009C0001E048091530190E00E94CF0381E061E119
:1009D0000E941E0480915201D3C080915101853044
:1009E00058F51092540110925301109252018F5FEA
:1009F0008093510181E064E10E941E0480915401C2
:100A000090E00E94CF0381E063E10E941E04809188
:100A1000530190E00E94CF0381E061E10E941E0437
:100A20008091520190E00E94CF0381E060E10E943A
:100A30001E0480915101A4C0909150019930E0F5BD
:100A400080914F018130C1F19230B0F51092540184
:100A50001092530110925201109251019F5F909396
:100A6000500181E064E10E941E048091540190E0F5
:100A70000E94CF0381E063E10E941E048091530134
:100A800090E00E94CF0381E061E10E941E0480910A
:100A9000520190E00E94CF0381E060E10E941E04B9
:100AA0008091510190E00E94CF0381E06EE00E94AE
:100AB0001E048091500164C080914F01823080F407
:100AC000992371F410925401109253011092520123
:100AD00010925101109250018F5F80934F011DC001
:100AE0001092540110925301109252011092510130
:100AF0001092500110924F0180913301813411F412
:100B000080E501C081E48093330181E066E10E94C9
:100B10001E04809133010E94930381E064E10E94EE
:100B20001E048091540190E00E94CF0381E063E1B4
:100B30000E941E048091530190E00E94CF0381E047
:100B400061E10E941E048091520190E00E94CF0357
:100B500081E060E10E941E048091510190E00E94BA
:100B6000CF0381E06EE00E941E048091500190E06E
:100B70000E94CF0381E06DE00E941E0480914F012E
:100B800090E00E94CF0308951F93CF93DF93EC0171
:100B90008F818534D9F48881282F30E022333105C4
:100BA000ACF42033310594F04B81463411F04234DB
:100BB00069F48C81853350F4843319F48D81863344
:100BC00028F48E81823549F08C3439F080E060E081
:100BD0004AE950E00E94310455C01A81105D84E654
:100BE00090E0BC01269FC001279F900D369F900D7D
:100BF0001124180F89812AE0829FC0011124180F47
:100C0000423431F0463411F482E003C080E001C088
:100C100081E0612F0E948D028D8190E08051924091
:100C20002C814AE0249F90011124820F931F9093FE
:100C30005701809356018E818093550180E060E0DA
:100C40004AEB50E00E943104812F90E00E94CF03D4
:100C500085EC90E00E94BC0387EC90E00E94BC030E
:100C6000809155018C3421F485ED90E00E94BC0305
:100C700080915601909157010E94CF0387ED90E03B
:100C80000E94BC03DF91CF911F910895CF93DF9312
:100C900080914601882329F460E04FED50E00E94E6
:100CA000310480914601C82FD0E00E946502C95BE3
:100CB000DE4F888390914601E92FF0E0E95BFE4F1B
:100CC0008081853459F4973049F080E060E049E054
:100CD00051E00E9431041092460103C09F5F90933F
:100CE000460180914601883030F01092460187E439
:100CF00091E00E94C405DF91CF9108951F920F9259
:100D00000FB60F9211242F933F934F935F936F93DE
:100D10007F938F939F93AF93BF93EF93FF930E9423
:100D20004606FF91EF91BF91AF919F918F917F9177
:100D30006F915F914F913F912F910F900FBE0F9048
:100D40001F901895629FD001739FF001829FE00D64
:100D5000F11D649FE00DF11D929FF00D839FF00D3A
:100D6000749FF00D659FF00D9927729FB00DE11DE6
:100D7000F91F639FB00DE11DF91FBD01CF011124C3
:100D8000089597FB092E07260AD077FD04D02ED0B0
:100D900006D000201AF4709561957F4F0895F6F7FC
:100DA000909581959F4F0895A1E21A2EAA1BBB1B17
:100DB000FD010DC0AA1FBB1FEE1FFF1FA217B30727
:100DC000E407F50720F0A21BB30BE40BF50B661F3D
:100DD000771F881F991F1A9469F760957095809501
:100DE00090959B01AC01BD01CF010895AA1BBB1BCF
:100DF00051E107C0AA1FBB1FA617B70710F0A61B1B
:100E0000B70B881F991F5A95A9F780959095BC013B
:100E1000CD010895FB019F01E8944230C4F04532B2
:100E2000B4F44A3029F497FB1EF4909581959F4FB6
:100E3000642F77270E94F606805D8A330CF0895D67
:100E40008193CB010097A1F716F45DE251931082D4
:100E5000C9010C942B07DC01FC01672F71917723EA
:100E6000E1F7329704C07C916D9370836291AE1765
:0A0E7000BF07C8F30895F894FFCF00
:100E7A002057656C636F6D652C20676F6F642074F3
:100E8A006F2073656520796F7520616761696E2EC1
:100E9A00002020202020202054696D653A2030301F
:100EAA003A30303A303020414D0057726F6E672029
:100EBA00696E7075742C2072652D656E746572206A
:100ECA00746865206672616D650020202053706524
:100EDA0065643A20002500202044697265637469BC
:100EEA006F6E3A20002D0020202020202020002094
:100EFA002020506C6561736520656E74657220618F
:100F0A002076616C6964206672616D6520202020FC
:100F1A0020202020202020200020202020202020E7
:100F2A0057726F6E67206672616D65206C656E67B9
:100F3A0074682120202020202000060203010908CD
:100F4A000C0406410000841E0501030000802500F0
:020F5A0000088D
:00000001FF
